:020000040000FA
:100000005D2864001120031801281C200830A3007B
:100010001D201120A20C0C28A30B08281D2022084B
:10002000080036088400340884178004841300050F
:1000300033193406FF3E0800331700308A00330DB1
:100040000639A0002F20A10000308A00200A2F20AE
:10005000331F3C283313A000023053203C28333E8A
:1000600003188A0A820001347534033415340034CD
:100070003C340C34D934A101E83EA000A109FC3085
:10008000031C4528A00703184228A0076400A10FFD
:10009000422820184B28A01C4F2800004F28080099
:1000A0000310A10CA00CFF3E03185028200858286C
:1000B0008313031383126400080007309F00831624
:1000C000013085008601831285018601B801053063
:1000D000B6000130B400B3010120583C031D6C2868
:1000E0000120B80064003808083C031D8828061069
:1000F0008316061083128614831686108312061147
:1001000083160611831286158316861183120C2915
:1001100064003808073C031D9E2806148316061049
:100120008312861083168610831206118316061119
:10013000831286158316861183120C2964003808F1
:10014000063C031DB428061083160610831286147D
:1001500083168610831206158316061183128611E4
:100160008316861183120C2964003808053C031D90
:10017000CA2806148316061083128610831686106A
:1001800083120615831606118312861183168611B3
:1001900083120C2964003808043C031DD828061675
:1001A00083160612831286128316861283120C2976
:1001B00064003808033C031DE62806128316061265
:1001C000831286168316861283120C29640038085F
:1001D000023C031DF02806178316061383120C2910
:1001E000061083160610831286108316861083125B
:1001F0000611831606118312861183168611831247
:100200000612831606128312861283168612831232
:0E0210000613831606138312662863000D2959
:02400E00453F2C
:00000001FF
